{"contracts/Verifier.sol":{"Verifier":{"abi":[{"anonymous":false,"inputs":[{"indexed":true,"internalType":"address","name":"_to","type":"address"},{"indexed":false,"internalType":"uint256","name":"_premium","type":"uint256"}],"name":"pay","type":"event"},{"inputs":[{"internalType":"address","name":"tokenContract","type":"address"}],"name":"changeToken","outputs":[],"stateMutability":"nonpayable","type":"function"},{"inputs":[{"internalType":"address","name":"","type":"address"}],"name":"hash","outputs":[{"internalType":"bytes32","name":"","type":"bytes32"}],"stateMutability":"view","type":"function"},{"inputs":[{"internalType":"address","name":"","type":"address"}],"name":"nonce","outputs":[{"internalType":"uint256","name":"","type":"uint256"}],"stateMutability":"view","type":"function"},{"inputs":[],"name":"pause","outputs":[],"stateMutability":"nonpayable","type":"function"},{"inputs":[],"name":"paused","outputs":[{"internalType":"bool","name":"","type":"bool"}],"stateMutability":"view","type":"function"},{"inputs":[],"name":"unpause","outputs":[],"stateMutability":"nonpayable","type":"function"},{"inputs":[{"internalType":"uint256","name":"_premiumSum","type":"uint256"},{"internalType":"uint8","name":"_v","type":"uint8"},{"internalType":"bytes32","name":"_r","type":"bytes32"},{"internalType":"bytes32","name":"_s","type":"bytes32"}],"name":"verifyString","outputs":[],"stateMutability":"nonpayable","type":"function"}],"evm":{"bytecode":{"linkReferences":{},"object":"608060405260008054738f545a4119beb3c2c80b25e2331a235ed3dfe91f6001600160a01b0319918216811790925560018054909116909117905534801561004657600080fd5b50610521806100566000396000f3fe608060405234801561001057600080fd5b506004361061007d5760003560e01c806366829b161161005b57806366829b16146100c857806370ae92d2146100f85780637e809973146101265780638456cb591461014657600080fd5b806335b665d7146100825780633f4ba83a146100975780635c975abb146100a6575b600080fd5b61009561009036600461040e565b610158565b005b6100956004805460ff19169055565b6004546100b39060ff1681565b60405190151581526020015b60405180910390f35b6100956100d6366004610451565b600080546001600160a01b0319166001600160a01b0392909216919091179055565b610118610106366004610451565b60026020526000908152604090205481565b6040519081526020016100bf565b610118610134366004610451565b60036020526000908152604090205481565b6100956004805460ff19166001179055565b60045460ff161561019a5760405162461bcd60e51b81526020600482015260076024820152665061757365642160c81b60448201526064015b60405180910390fd5b60408051336020820181905291810186905260009060600160408051601f1981840301815282825280516020918201208383018352601c84527f19457468657265756d205369676e6564204d6573736167653a0a33320000000084830152915191935060009161020e918491869101610481565b60408051601f198184030181529181528151602092830120336000908152600390935291205490915081141561027c5760405162461bcd60e51b81526020600482015260136024820152724861736820616c72656164792065786973747360681b6044820152606401610191565b336000908152600360209081526040808320849055805183815291820180825284905260ff8a1690820152606081018890526080810187905260019060a0016020604051602081039080840390855afa1580156102dd573d6000803e3d6000fd5b505050602060405103519050846001600160a01b0316816001600160a01b0316146103395760405162461bcd60e51b815260206004820152600c60248201526b2bb937b7339039b4b3b732b960a11b6044820152606401610191565b60015460405163a9059cbb60e01b81526001600160a01b038781166004830152602482018c90529091169063a9059cbb90604401600060405180830381600087803b15801561038757600080fd5b505af115801561039b573d6000803e3d6000fd5b50503360009081526002602052604081208054935091506103bb836104c2565b9190505550846001600160a01b03167fc40768760861c5852e940fd40ca112b48d8dc1975460cca5acb8a003a931faf38a6040516103fb91815260200190565b60405180910390a2505050505050505050565b6000806000806080858703121561042457600080fd5b84359350602085013560ff8116811461043c57600080fd5b93969395505050506040820135916060013590565b60006020828403121561046357600080fd5b81356001600160a01b038116811461047a57600080fd5b9392505050565b6000835160005b818110156104a25760208187018101518583015201610488565b818111156104b1576000828501525b509190910191825250602001919050565b60006000198214156104e457634e487b7160e01b600052601160045260246000fd5b506001019056fea26469706673582212200b75e65be396997df0d5df843259cf667d26a51e84b4353f3b345f5d49ca8bbd64736f6c63430008090033","opcodes":"PUSH1 0x80 PUSH1 0x40 MSTORE PUSH1 0x0 DUP1 SLOAD PUSH20 0x8F545A4119BEB3C2C80B25E2331A235ED3DFE91F PUSH1 0x1 PUSH1 0x1 PUSH1 0xA0 SHL SUB NOT SWAP2 DUP3 AND DUP2 OR SWAP1 SWAP3 SSTORE PUSH1 0x1 DUP1 SLOAD SWAP1 SWAP2 AND SWAP1 SWAP2 OR SWAP1 SSTORE CALLVALUE DUP1 ISZERO PUSH2 0x46 JUMPI PUSH1 0x0 DUP1 REVERT JUMPDEST POP PUSH2 0x521 DUP1 PUSH2 0x56 PUSH1 0x0 CODECOPY PUSH1 0x0 RETURN INVALID PUSH1 0x80 PUSH1 0x40 MSTORE CALLVALUE DUP1 ISZERO PUSH2 0x10 JUMPI PUSH1 0x0 DUP1 REVERT JUMPDEST POP PUSH1 0x4 CALLDATASIZE LT PUSH2 0x7D JUMPI PUSH1 0x0 CALLDATALOAD PUSH1 0xE0 SHR DUP1 PUSH4 0x66829B16 GT PUSH2 0x5B JUMPI DUP1 PUSH4 0x66829B16 EQ PUSH2 0xC8 JUMPI DUP1 PUSH4 0x70AE92D2 EQ PUSH2 0xF8 JUMPI DUP1 PUSH4 0x7E809973 EQ PUSH2 0x126 JUMPI DUP1 PUSH4 0x8456CB59 EQ PUSH2 0x146 JUMPI PUSH1 0x0 DUP1 REVERT JUMPDEST DUP1 PUSH4 0x35B665D7 EQ PUSH2 0x82 JUMPI DUP1 PUSH4 0x3F4BA83A EQ PUSH2 0x97 JUMPI DUP1 PUSH4 0x5C975ABB EQ PUSH2 0xA6 JUMPI JUMPDEST PUSH1 0x0 DUP1 REVERT JUMPDEST PUSH2 0x95 PUSH2 0x90 CALLDATASIZE PUSH1 0x4 PUSH2 0x40E JUMP JUMPDEST PUSH2 0x158 JUMP JUMPDEST STOP JUMPDEST PUSH2 0x95 PUSH1 0x4 DUP1 SLOAD PUSH1 0xFF NOT AND SWAP1 SSTORE JUMP JUMPDEST PUSH1 0x4 SLOAD PUSH2 0xB3 SWAP1 PUSH1 0xFF AND DUP2 JUMP JUMPDEST PUSH1 0x40 MLOAD SWAP1 ISZERO ISZERO DUP2 MSTORE PUSH1 0x20 ADD JUMPDEST PUSH1 0x40 MLOAD DUP1 SWAP2 SUB SWAP1 RETURN JUMPDEST PUSH2 0x95 PUSH2 0xD6 CALLDATASIZE PUSH1 0x4 PUSH2 0x451 JUMP JUMPDEST PUSH1 0x0 DUP1 SLOAD PUSH1 0x1 PUSH1 0x1 PUSH1 0xA0 SHL SUB NOT AND PUSH1 0x1 PUSH1 0x1 PUSH1 0xA0 SHL SUB SWAP3 SWAP1 SWAP3 AND SWAP2 SWAP1 SWAP2 OR SWAP1 SSTORE JUMP JUMPDEST PUSH2 0x118 PUSH2 0x106 CALLDATASIZE PUSH1 0x4 PUSH2 0x451 JUMP JUMPDEST PUSH1 0x2 PUSH1 0x20 MSTORE PUSH1 0x0 SWAP1 DUP2 MSTORE PUSH1 0x40 SWAP1 KECCAK256 SLOAD DUP2 JUMP JUMPDEST PUSH1 0x40 MLOAD SWAP1 DUP2 MSTORE PUSH1 0x20 ADD PUSH2 0xBF JUMP JUMPDEST PUSH2 0x118 PUSH2 0x134 CALLDATASIZE PUSH1 0x4 PUSH2 0x451 JUMP JUMPDEST PUSH1 0x3 PUSH1 0x20 MSTORE PUSH1 0x0 SWAP1 DUP2 MSTORE PUSH1 0x40 SWAP1 KECCAK256 SLOAD DUP2 JUMP JUMPDEST PUSH2 0x95 PUSH1 0x4 DUP1 SLOAD PUSH1 0xFF NOT AND PUSH1 0x1 OR SWAP1 SSTORE JUMP JUMPDEST PUSH1 0x4 SLOAD PUSH1 0xFF AND ISZERO PUSH2 0x19A JUMPI PUSH1 0x40 MLOAD PUSH3 0x461BCD PUSH1 0xE5 SHL DUP2 MSTORE PUSH1 0x20 PUSH1 0x4 DUP3 ADD MSTORE PUSH1 0x7 PUSH1 0x24 DUP3 ADD MSTORE PUSH7 0x50617573656421 PUSH1 0xC8 SHL PUSH1 0x44 DUP3 ADD MSTORE PUSH1 0x64 ADD JUMPDEST PUSH1 0x40 MLOAD DUP1 SWAP2 SUB SWAP1 REVERT JUMPDEST PUSH1 0x40 DUP1 MLOAD CALLER PUSH1 0x20 DUP3 ADD DUP2 SWAP1 MSTORE SWAP2 DUP2 ADD DUP7 SWAP1 MSTORE PUSH1 0x0 SWAP1 PUSH1 0x60 ADD PUSH1 0x40 DUP1 MLOAD PUSH1 0x1F NOT DUP2 DUP5 SUB ADD DUP2 MSTORE DUP3 DUP3 MSTORE DUP1 MLOAD PUSH1 0x20 SWAP2 DUP3 ADD KECCAK256 DUP4 DUP4 ADD DUP4 MSTORE PUSH1 0x1C DUP5 MSTORE PUSH32 0x19457468657265756D205369676E6564204D6573736167653A0A333200000000 DUP5 DUP4 ADD MSTORE SWAP2 MLOAD SWAP2 SWAP4 POP PUSH1 0x0 SWAP2 PUSH2 0x20E SWAP2 DUP5 SWAP2 DUP7 SWAP2 ADD PUSH2 0x481 JUMP JUMPDEST PUSH1 0x40 DUP1 MLOAD PUSH1 0x1F NOT DUP2 DUP5 SUB ADD DUP2 MSTORE SWAP2 DUP2 MSTORE DUP2 MLOAD PUSH1 0x20 SWAP3 DUP4 ADD KECCAK256 CALLER PUSH1 0x0 SWAP1 DUP2 MSTORE PUSH1 0x3 SWAP1 SWAP4 MSTORE SWAP2 KECCAK256 SLOAD SWAP1 SWAP2 POP DUP2 EQ ISZERO PUSH2 0x27C JUMPI PUSH1 0x40 MLOAD PUSH3 0x461BCD PUSH1 0xE5 SHL DUP2 MSTORE PUSH1 0x20 PUSH1 0x4 DUP3 ADD MSTORE PUSH1 0x13 PUSH1 0x24 DUP3 ADD MSTORE PUSH19 0x4861736820616C726561647920657869737473 PUSH1 0x68 SHL PUSH1 0x44 DUP3 ADD MSTORE PUSH1 0x64 ADD PUSH2 0x191 JUMP JUMPDEST CALLER PUSH1 0x0 SWAP1 DUP2 MSTORE PUSH1 0x3 PUSH1 0x20 SWAP1 DUP2 MSTORE PUSH1 0x40 DUP1 DUP4 KECCAK256 DUP5 SWAP1 SSTORE DUP1 MLOAD DUP4 DUP2 MSTORE SWAP2 DUP3 ADD DUP1 DUP3 MSTORE DUP5 SWAP1 MSTORE PUSH1 0xFF DUP11 AND SWAP1 DUP3 ADD MSTORE PUSH1 0x60 DUP2 ADD DUP9 SWAP1 MSTORE PUSH1 0x80 DUP2 ADD DUP8 SWAP1 MSTORE PUSH1 0x1 SWAP1 PUSH1 0xA0 ADD PUSH1 0x20 PUSH1 0x40 MLOAD PUSH1 0x20 DUP2 SUB SWAP1 DUP1 DUP5 SUB SWAP1 DUP6 GAS STATICCALL ISZERO DUP1 ISZERO PUSH2 0x2DD JUMPI RETURNDATASIZE PUSH1 0x0 DUP1 RETURNDATACOPY RETURNDATASIZE PUSH1 0x0 REVERT JUMPDEST POP POP POP PUSH1 0x20 PUSH1 0x40 MLOAD SUB MLOAD SWAP1 POP DUP5 PUSH1 0x1 PUSH1 0x1 PUSH1 0xA0 SHL SUB AND DUP2 PUSH1 0x1 PUSH1 0x1 PUSH1 0xA0 SHL SUB AND EQ PUSH2 0x339 JUMPI PUSH1 0x40 MLOAD PUSH3 0x461BCD PUSH1 0xE5 SHL DUP2 MSTORE PUSH1 0x20 PUSH1 0x4 DUP3 ADD MSTORE PUSH1 0xC PUSH1 0x24 DUP3 ADD MSTORE PUSH12 0x2BB937B7339039B4B3B732B9 PUSH1 0xA1 SHL PUSH1 0x44 DUP3 ADD MSTORE PUSH1 0x64 ADD PUSH2 0x191 JUMP JUMPDEST PUSH1 0x1 SLOAD PUSH1 0x40 MLOAD PUSH4 0xA9059CBB PUSH1 0xE0 SHL DUP2 MSTORE PUSH1 0x1 PUSH1 0x1 PUSH1 0xA0 SHL SUB DUP8 DUP2 AND PUSH1 0x4 DUP4 ADD MSTORE PUSH1 0x24 DUP3 ADD DUP13 SWAP1 MSTORE SWAP1 SWAP2 AND SWAP1 PUSH4 0xA9059CBB SWAP1 PUSH1 0x44 ADD PUSH1 0x0 PUSH1 0x40 MLOAD DUP1 DUP4 SUB DUP2 PUSH1 0x0 DUP8 DUP1 EXTCODESIZE ISZERO DUP1 ISZERO PUSH2 0x387 JUMPI PUSH1 0x0 DUP1 REVERT JUMPDEST POP GAS CALL ISZERO DUP1 ISZERO PUSH2 0x39B JUMPI RETURNDATASIZE PUSH1 0x0 DUP1 RETURNDATACOPY RETURNDATASIZE PUSH1 0x0 REVERT JUMPDEST POP POP CALLER PUSH1 0x0 SWAP1 DUP2 MSTORE PUSH1 0x2 PUSH1 0x20 MSTORE PUSH1 0x40 DUP2 KECCAK256 DUP1 SLOAD SWAP4 POP SWAP2 POP PUSH2 0x3BB DUP4 PUSH2 0x4C2 JUMP JUMPDEST SWAP2 SWAP1 POP SSTORE POP DUP5 PUSH1 0x1 PUSH1 0x1 PUSH1 0xA0 SHL SUB AND PUSH32 0xC40768760861C5852E940FD40CA112B48D8DC1975460CCA5ACB8A003A931FAF3 DUP11 PUSH1 0x40 MLOAD PUSH2 0x3FB SWAP2 DUP2 MSTORE PUSH1 0x20 ADD SWAP1 JUMP JUMPDEST PUSH1 0x40 MLOAD DUP1 SWAP2 SUB SWAP1 LOG2 POP POP POP POP POP POP POP POP POP JUMP JUMPDEST PUSH1 0x0 DUP1 PUSH1 0x0 DUP1 PUSH1 0x80 DUP6 DUP8 SUB SLT ISZERO PUSH2 0x424 JUMPI PUSH1 0x0 DUP1 REVERT JUMPDEST DUP5 CALLDATALOAD SWAP4 POP PUSH1 0x20 DUP6 ADD CALLDATALOAD PUSH1 0xFF DUP2 AND DUP2 EQ PUSH2 0x43C JUMPI PUSH1 0x0 DUP1 REVERT JUMPDEST SWAP4 SWAP7 SWAP4 SWAP6 POP POP POP POP PUSH1 0x40 DUP3 ADD CALLDATALOAD SWAP2 PUSH1 0x60 ADD CALLDATALOAD SWAP1 JUMP JUMPDEST PUSH1 0x0 PUSH1 0x20 DUP3 DUP5 SUB SLT ISZERO PUSH2 0x463 JUMPI PUSH1 0x0 DUP1 REVERT JUMPDEST DUP2 CALLDATALOAD PUSH1 0x1 PUSH1 0x1 PUSH1 0xA0 SHL SUB DUP2 AND DUP2 EQ PUSH2 0x47A JUMPI PUSH1 0x0 DUP1 REVERT JUMPDEST SWAP4 SWAP3 POP POP POP JUMP JUMPDEST PUSH1 0x0 DUP4 MLOAD PUSH1 0x0 JUMPDEST DUP2 DUP2 LT ISZERO PUSH2 0x4A2 JUMPI PUSH1 0x20 DUP2 DUP8 ADD DUP2 ADD MLOAD DUP6 DUP4 ADD MSTORE ADD PUSH2 0x488 JUMP JUMPDEST DUP2 DUP2 GT ISZERO PUSH2 0x4B1 JUMPI PUSH1 0x0 DUP3 DUP6 ADD MSTORE JUMPDEST POP SWAP2 SWAP1 SWAP2 ADD SWAP2 DUP3 MSTORE POP PUSH1 0x20 ADD SWAP2 SWAP1 POP JUMP JUMPDEST PUSH1 0x0 PUSH1 0x0 NOT DUP3 EQ ISZERO PUSH2 0x4E4 JUMPI PUSH4 0x4E487B71 PUSH1 0xE0 SHL PUSH1 0x0 MSTORE PUSH1 0x11 PUSH1 0x4 MSTORE PUSH1 0x24 PUSH1 0x0 REVERT JUMPDEST POP PUSH1 0x1 ADD SWAP1 JUMP INVALID LOG2 PUSH5 0x6970667358 0x22 SLT KECCAK256 SIGNEXTEND PUSH22 0xE65BE396997DF0D5DF843259CF667D26A51E84B4353F EXTCODESIZE CALLVALUE 0x5F 0x5D 0x49 0xCA DUP12 0xBD PUSH5 0x736F6C6343 STOP ADDMOD MULMOD STOP CALLER "},"methodIdentifiers":{"changeToken(address)":"66829b16","hash(address)":"7e809973","nonce(address)":"70ae92d2","pause()":"8456cb59","paused()":"5c975abb","unpause()":"3f4ba83a","verifyString(uint256,uint8,bytes32,bytes32)":"35b665d7"}}}}}