{
  "_format": "hh-sol-artifact-1",
  "contractName": "ERC20",
  "sourceName": "contracts/ERC20.sol",
  "abi": [
    {
      "inputs": [],
      "stateMutability": "nonpayable",
      "type": "constructor"
    },
    {
      "anonymous": false,
      "inputs": [
        {
          "indexed": true,
          "internalType": "address",
          "name": "_from",
          "type": "address"
        },
        {
          "indexed": true,
          "internalType": "address",
          "name": "_to",
          "type": "address"
        },
        {
          "indexed": false,
          "internalType": "uint256",
          "name": "_value",
          "type": "uint256"
        }
      ],
      "name": "Transfer",
      "type": "event"
    },
    {
      "inputs": [
        {
          "internalType": "address",
          "name": "account",
          "type": "address"
        }
      ],
      "name": "balanceOf",
      "outputs": [
        {
          "internalType": "uint256",
          "name": "",
          "type": "uint256"
        }
      ],
      "stateMutability": "view",
      "type": "function"
    },
    {
      "inputs": [],
      "name": "decimals",
      "outputs": [
        {
          "internalType": "uint256",
          "name": "",
          "type": "uint256"
        }
      ],
      "stateMutability": "view",
      "type": "function"
    },
    {
      "inputs": [
        {
          "internalType": "address",
          "name": "to",
          "type": "address"
        },
        {
          "internalType": "uint256",
          "name": "amount",
          "type": "uint256"
        }
      ],
      "name": "mint",
      "outputs": [],
      "stateMutability": "nonpayable",
      "type": "function"
    },
    {
      "inputs": [],
      "name": "name",
      "outputs": [
        {
          "internalType": "string",
          "name": "",
          "type": "string"
        }
      ],
      "stateMutability": "view",
      "type": "function"
    },
    {
      "inputs": [],
      "name": "owner",
      "outputs": [
        {
          "internalType": "address",
          "name": "",
          "type": "address"
        }
      ],
      "stateMutability": "view",
      "type": "function"
    },
    {
      "inputs": [],
      "name": "symbol",
      "outputs": [
        {
          "internalType": "string",
          "name": "",
          "type": "string"
        }
      ],
      "stateMutability": "view",
      "type": "function"
    },
    {
      "inputs": [],
      "name": "totalSupply",
      "outputs": [
        {
          "internalType": "uint256",
          "name": "",
          "type": "uint256"
        }
      ],
      "stateMutability": "view",
      "type": "function"
    },
    {
      "inputs": [
        {
          "internalType": "address",
          "name": "to",
          "type": "address"
        },
        {
          "internalType": "uint256",
          "name": "amount",
          "type": "uint256"
        }
      ],
      "name": "transfer",
      "outputs": [],
      "stateMutability": "nonpayable",
      "type": "function"
    }
  ],
  "bytecode": "0x6012600055683635c9adc5dea0000060015560c0604052601060808190526f2a32b9ba1022a9219918102a37b5b2b760811b60a090815261004391600391906100a8565b50604080518082019091526004808252635445524360e01b602090920191825261006d91816100a8565b5034801561007a57600080fd5b50600280546001600160a01b031916339081179091556001546000918252600560205260409091205561017c565b8280546100b490610141565b90600052602060002090601f0160209004810192826100d6576000855561011c565b82601f106100ef57805160ff191683800117855561011c565b8280016001018555821561011c579182015b8281111561011c578251825591602001919060010190610101565b5061012892915061012c565b5090565b5b80821115610128576000815560010161012d565b600181811c9082168061015557607f821691505b6020821081141561017657634e487b7160e01b600052602260045260246000fd5b50919050565b6104918061018b6000396000f3fe608060405234801561001057600080fd5b50600436106100885760003560e01c806370a082311161005b57806370a08231146100e05780638da5cb5b1461010957806395d89b4114610134578063a9059cbb1461013c57600080fd5b806306fdde031461008d57806318160ddd146100ab578063313ce567146100c257806340c10f19146100cb575b600080fd5b61009561014f565b6040516100a2919061031e565b60405180910390f35b6100b460015481565b6040519081526020016100a2565b6100b460005481565b6100de6100d936600461038f565b6101dd565b005b6100b46100ee3660046103b9565b6001600160a01b031660009081526005602052604090205490565b60025461011c906001600160a01b031681565b6040516001600160a01b0390911681526020016100a2565b610095610225565b6100de61014a36600461038f565b610232565b6003805461015c906103db565b80601f0160208091040260200160405190810160405280929190818152602001828054610188906103db565b80156101d55780601f106101aa576101008083540402835291602001916101d5565b820191906000526020600020905b8154815290600101906020018083116101b857829003601f168201915b505050505081565b80600160008282546101ef919061042c565b90915550506001600160a01b0382166000908152600560205260408120805483929061021c90849061042c565b90915550505050565b6004805461015c906103db565b336000908152600560205260409020548111156102895760405162461bcd60e51b81526020600482015260116024820152704e6f7420656e6f75676820746f6b656e7360781b604482015260640160405180910390fd5b33600090815260056020526040812080548392906102a8908490610444565b90915550506001600160a01b038216600090815260056020526040812080548392906102d590849061042c565b90915550506040518181526001600160a01b0383169033907fddf252ad1be2c89b69c2b068fc378daa952ba7f163c4a11628f55a4df523b3ef9060200160405180910390a35050565b600060208083528351808285015260005b8181101561034b5785810183015185820160400152820161032f565b8181111561035d576000604083870101525b50601f01601f1916929092016040019392505050565b80356001600160a01b038116811461038a57600080fd5b919050565b600080604083850312156103a257600080fd5b6103ab83610373565b946020939093013593505050565b6000602082840312156103cb57600080fd5b6103d482610373565b9392505050565b600181811c908216806103ef57607f821691505b6020821081141561041057634e487b7160e01b600052602260045260246000fd5b50919050565b634e487b7160e01b600052601160045260246000fd5b6000821982111561043f5761043f610416565b500190565b60008282101561045657610456610416565b50039056fea264697066735822122090d31c2c2c86a82b9fd2ed647e1cd6fe9ac0ef3812de8118135cd86e623f04a964736f6c63430008090033",
  "linkReferences": {},
  "deployedLinkReferences": {}
}