{
  "_format": "hh-sol-artifact-1",
  "contractName": "Verifier",
  "sourceName": "contracts/Verifier.sol",
  "abi": [
    {
      "inputs": [],
      "stateMutability": "nonpayable",
      "type": "constructor"
    },
    {
      "anonymous": false,
      "inputs": [
        {
          "indexed": true,
          "internalType": "address",
          "name": "_to",
          "type": "address"
        },
        {
          "indexed": true,
          "internalType": "bytes32",
          "name": "_signature",
          "type": "bytes32"
        },
        {
          "indexed": false,
          "internalType": "uint256",
          "name": "_premium",
          "type": "uint256"
        }
      ],
      "name": "Pay",
      "type": "event"
    },
    {
      "inputs": [
        {
          "internalType": "address",
          "name": "tokenContract",
          "type": "address"
        }
      ],
      "name": "changeToken",
      "outputs": [],
      "stateMutability": "nonpayable",
      "type": "function"
    },
    {
      "inputs": [
        {
          "internalType": "address",
          "name": "user",
          "type": "address"
        }
      ],
      "name": "getNonce",
      "outputs": [
        {
          "internalType": "uint256",
          "name": "",
          "type": "uint256"
        }
      ],
      "stateMutability": "view",
      "type": "function"
    },
    {
      "inputs": [
        {
          "internalType": "address",
          "name": "",
          "type": "address"
        }
      ],
      "name": "nonce",
      "outputs": [
        {
          "internalType": "uint256",
          "name": "",
          "type": "uint256"
        }
      ],
      "stateMutability": "view",
      "type": "function"
    },
    {
      "inputs": [],
      "name": "owner",
      "outputs": [
        {
          "internalType": "address",
          "name": "",
          "type": "address"
        }
      ],
      "stateMutability": "view",
      "type": "function"
    },
    {
      "inputs": [],
      "name": "pause",
      "outputs": [],
      "stateMutability": "nonpayable",
      "type": "function"
    },
    {
      "inputs": [],
      "name": "paused",
      "outputs": [
        {
          "internalType": "bool",
          "name": "",
          "type": "bool"
        }
      ],
      "stateMutability": "view",
      "type": "function"
    },
    {
      "inputs": [
        {
          "internalType": "bytes32",
          "name": "",
          "type": "bytes32"
        }
      ],
      "name": "sigHash",
      "outputs": [
        {
          "internalType": "address",
          "name": "",
          "type": "address"
        }
      ],
      "stateMutability": "view",
      "type": "function"
    },
    {
      "inputs": [],
      "name": "unpause",
      "outputs": [],
      "stateMutability": "nonpayable",
      "type": "function"
    },
    {
      "inputs": [
        {
          "internalType": "uint256",
          "name": "premiumSum",
          "type": "uint256"
        },
        {
          "internalType": "uint8",
          "name": "v",
          "type": "uint8"
        },
        {
          "internalType": "bytes32",
          "name": "r",
          "type": "bytes32"
        },
        {
          "internalType": "bytes32",
          "name": "s",
          "type": "bytes32"
        }
      ],
      "name": "verifyString",
      "outputs": [],
      "stateMutability": "nonpayable",
      "type": "function"
    }
  ],
  "bytecode": "0x608060405260008054731a7c57634db85f84684350c7b74a73169b7c908c6001600160a01b0319918216811790925560018054909116909117905534801561004657600080fd5b5060048054610100600160a81b031916336101000217905561069b8061006d6000396000f3fe608060405234801561001057600080fd5b50600436106100935760003560e01c80635c975abb116100665780635c975abb1461013257806366829b161461014f57806370ae92d2146101625780638456cb59146101825780638da5cb5b1461018a57600080fd5b80632d0335ab1461009857806335b665d7146100d45780633f4ba83a146100e95780635ad90c84146100f1575b600080fd5b6100c16100a6366004610544565b6001600160a01b031660009081526002602052604090205490565b6040519081526020015b60405180910390f35b6100e76100e2366004610574565b6101a2565b005b6100e761047a565b61011a6100ff3660046105b7565b6003602052600090815260409020546001600160a01b031681565b6040516001600160a01b0390911681526020016100cb565b60045461013f9060ff1681565b60405190151581526020016100cb565b6100e761015d366004610544565b6104b5565b6100c1610170366004610544565b60026020526000908152604090205481565b6100e7610506565b60045461011a9061010090046001600160a01b031681565b60045460ff16156101e45760405162461bcd60e51b81526020600482015260076024820152665061757365642160c81b60448201526064015b60405180910390fd5b60408051336020820181905291810186905260009060600160408051601f1981840301815282825280516020918201208383018352601c84527f19457468657265756d205369676e6564204d6573736167653a0a333200000000848301523360009081526002835283812054935191955092610265928592879291016105d0565b60408051601f198184030181529181528151602092830120600081815260039093529120549091506001600160a01b03163314156102db5760405162461bcd60e51b81526020600482015260136024820152724861736820616c72656164792065786973747360681b60448201526064016101db565b600081815260036020908152604080832080546001600160a01b03191633179055805183815291820180825284905260ff8a1690820152606081018890526080810187905260019060a0016020604051602081039080840390855afa158015610348573d6000803e3d6000fd5b505050602060405103519050846001600160a01b0316816001600160a01b0316146103a45760405162461bcd60e51b815260206004820152600c60248201526b2bb937b7339039b4b3b732b960a11b60448201526064016101db565b60015460405163a9059cbb60e01b81526001600160a01b038781166004830152602482018c90529091169063a9059cbb90604401600060405180830381600087803b1580156103f257600080fd5b505af1158015610406573d6000803e3d6000fd5b505033600090815260026020526040812080549350915061042683610616565b919050555081856001600160a01b03167f5561bfa1c208fd976eaa2851896a22f36b39c7d479424a40e846217ad885753b8b60405161046791815260200190565b60405180910390a3505050505050505050565b60045461010090046001600160a01b031633146104a95760405162461bcd60e51b81526004016101db9061063f565b6004805460ff19169055565b60045461010090046001600160a01b031633146104e45760405162461bcd60e51b81526004016101db9061063f565b600080546001600160a01b0319166001600160a01b0392909216919091179055565b60045461010090046001600160a01b031633146105355760405162461bcd60e51b81526004016101db9061063f565b6004805460ff19166001179055565b60006020828403121561055657600080fd5b81356001600160a01b038116811461056d57600080fd5b9392505050565b6000806000806080858703121561058a57600080fd5b84359350602085013560ff811681146105a257600080fd5b93969395505050506040820135916060013590565b6000602082840312156105c957600080fd5b5035919050565b6000845160005b818110156105f157602081880181015185830152016105d7565b81811115610600576000828501525b5091909101928352506020820152604001919050565b600060001982141561063857634e487b7160e01b600052601160045260246000fd5b5060010190565b6020808252600c908201526b2737ba1030b71037bbb732b960a11b60408201526060019056fea264697066735822122019b1c977b5bf48ffcd38d1415185028276ec0e6dd561288534df1ad64a8aa6a264736f6c63430008090033",
  "linkReferences": {},
  "deployedLinkReferences": {}
}