{
  "_format": "hh-sol-artifact-1",
  "contractName": "Verifier",
  "sourceName": "contracts/Verifier.sol",
  "abi": [
    {
      "anonymous": false,
      "inputs": [
        {
          "indexed": true,
          "internalType": "address",
          "name": "_to",
          "type": "address"
        },
        {
          "indexed": false,
          "internalType": "uint256",
          "name": "_premium",
          "type": "uint256"
        }
      ],
      "name": "pay",
      "type": "event"
    },
    {
      "inputs": [
        {
          "internalType": "address",
          "name": "tokenContract",
          "type": "address"
        }
      ],
      "name": "changeToken",
      "outputs": [],
      "stateMutability": "nonpayable",
      "type": "function"
    },
    {
      "inputs": [
        {
          "internalType": "address",
          "name": "",
          "type": "address"
        }
      ],
      "name": "hash",
      "outputs": [
        {
          "internalType": "bytes32",
          "name": "",
          "type": "bytes32"
        }
      ],
      "stateMutability": "view",
      "type": "function"
    },
    {
      "inputs": [
        {
          "internalType": "address",
          "name": "",
          "type": "address"
        }
      ],
      "name": "nonce",
      "outputs": [
        {
          "internalType": "uint256",
          "name": "",
          "type": "uint256"
        }
      ],
      "stateMutability": "view",
      "type": "function"
    },
    {
      "inputs": [],
      "name": "pause",
      "outputs": [],
      "stateMutability": "nonpayable",
      "type": "function"
    },
    {
      "inputs": [],
      "name": "paused",
      "outputs": [
        {
          "internalType": "bool",
          "name": "",
          "type": "bool"
        }
      ],
      "stateMutability": "view",
      "type": "function"
    },
    {
      "inputs": [],
      "name": "unpause",
      "outputs": [],
      "stateMutability": "nonpayable",
      "type": "function"
    },
    {
      "inputs": [
        {
          "internalType": "uint256",
          "name": "_premiumSum",
          "type": "uint256"
        },
        {
          "internalType": "uint8",
          "name": "_v",
          "type": "uint8"
        },
        {
          "internalType": "bytes32",
          "name": "_r",
          "type": "bytes32"
        },
        {
          "internalType": "bytes32",
          "name": "_s",
          "type": "bytes32"
        }
      ],
      "name": "verifyString",
      "outputs": [],
      "stateMutability": "nonpayable",
      "type": "function"
    }
  ],
  "bytecode": "0x608060405260008054738f545a4119beb3c2c80b25e2331a235ed3dfe91f6001600160a01b0319918216811790925560018054909116909117905534801561004657600080fd5b50610521806100566000396000f3fe608060405234801561001057600080fd5b506004361061007d5760003560e01c806366829b161161005b57806366829b16146100c857806370ae92d2146100f85780637e809973146101265780638456cb591461014657600080fd5b806335b665d7146100825780633f4ba83a146100975780635c975abb146100a6575b600080fd5b61009561009036600461040e565b610158565b005b6100956004805460ff19169055565b6004546100b39060ff1681565b60405190151581526020015b60405180910390f35b6100956100d6366004610451565b600080546001600160a01b0319166001600160a01b0392909216919091179055565b610118610106366004610451565b60026020526000908152604090205481565b6040519081526020016100bf565b610118610134366004610451565b60036020526000908152604090205481565b6100956004805460ff19166001179055565b60045460ff161561019a5760405162461bcd60e51b81526020600482015260076024820152665061757365642160c81b60448201526064015b60405180910390fd5b60408051336020820181905291810186905260009060600160408051601f1981840301815282825280516020918201208383018352601c84527f19457468657265756d205369676e6564204d6573736167653a0a33320000000084830152915191935060009161020e918491869101610481565b60408051601f198184030181529181528151602092830120336000908152600390935291205490915081141561027c5760405162461bcd60e51b81526020600482015260136024820152724861736820616c72656164792065786973747360681b6044820152606401610191565b336000908152600360209081526040808320849055805183815291820180825284905260ff8a1690820152606081018890526080810187905260019060a0016020604051602081039080840390855afa1580156102dd573d6000803e3d6000fd5b505050602060405103519050846001600160a01b0316816001600160a01b0316146103395760405162461bcd60e51b815260206004820152600c60248201526b2bb937b7339039b4b3b732b960a11b6044820152606401610191565b60015460405163a9059cbb60e01b81526001600160a01b038781166004830152602482018c90529091169063a9059cbb90604401600060405180830381600087803b15801561038757600080fd5b505af115801561039b573d6000803e3d6000fd5b50503360009081526002602052604081208054935091506103bb836104c2565b9190505550846001600160a01b03167fc40768760861c5852e940fd40ca112b48d8dc1975460cca5acb8a003a931faf38a6040516103fb91815260200190565b60405180910390a2505050505050505050565b6000806000806080858703121561042457600080fd5b84359350602085013560ff8116811461043c57600080fd5b93969395505050506040820135916060013590565b60006020828403121561046357600080fd5b81356001600160a01b038116811461047a57600080fd5b9392505050565b6000835160005b818110156104a25760208187018101518583015201610488565b818111156104b1576000828501525b509190910191825250602001919050565b60006000198214156104e457634e487b7160e01b600052601160045260246000fd5b506001019056fea26469706673582212200b75e65be396997df0d5df843259cf667d26a51e84b4353f3b345f5d49ca8bbd64736f6c63430008090033",
  "linkReferences": {},
  "deployedLinkReferences": {}
}