{
  "_format": "hh-sol-artifact-1",
  "contractName": "Verifier",
  "sourceName": "contracts/Verifier.sol",
  "abi": [
    {
      "inputs": [],
      "stateMutability": "nonpayable",
      "type": "constructor"
    },
    {
      "anonymous": false,
      "inputs": [
        {
          "indexed": true,
          "internalType": "address",
          "name": "_to",
          "type": "address"
        },
        {
          "indexed": true,
          "internalType": "bytes32",
          "name": "_signature",
          "type": "bytes32"
        },
        {
          "indexed": false,
          "internalType": "uint256",
          "name": "_premium",
          "type": "uint256"
        }
      ],
      "name": "Pay",
      "type": "event"
    },
    {
      "inputs": [
        {
          "internalType": "address",
          "name": "tokenContract",
          "type": "address"
        }
      ],
      "name": "changeToken",
      "outputs": [],
      "stateMutability": "nonpayable",
      "type": "function"
    },
    {
      "inputs": [
        {
          "internalType": "address",
          "name": "user",
          "type": "address"
        }
      ],
      "name": "getNonce",
      "outputs": [
        {
          "internalType": "uint256",
          "name": "",
          "type": "uint256"
        }
      ],
      "stateMutability": "view",
      "type": "function"
    },
    {
      "inputs": [
        {
          "internalType": "address",
          "name": "",
          "type": "address"
        }
      ],
      "name": "nonce",
      "outputs": [
        {
          "internalType": "uint256",
          "name": "",
          "type": "uint256"
        }
      ],
      "stateMutability": "view",
      "type": "function"
    },
    {
      "inputs": [],
      "name": "owner",
      "outputs": [
        {
          "internalType": "address",
          "name": "",
          "type": "address"
        }
      ],
      "stateMutability": "view",
      "type": "function"
    },
    {
      "inputs": [
        {
          "internalType": "bytes32",
          "name": "",
          "type": "bytes32"
        }
      ],
      "name": "paid",
      "outputs": [
        {
          "internalType": "bool",
          "name": "",
          "type": "bool"
        }
      ],
      "stateMutability": "view",
      "type": "function"
    },
    {
      "inputs": [],
      "name": "pause",
      "outputs": [],
      "stateMutability": "nonpayable",
      "type": "function"
    },
    {
      "inputs": [],
      "name": "paused",
      "outputs": [
        {
          "internalType": "bool",
          "name": "",
          "type": "bool"
        }
      ],
      "stateMutability": "view",
      "type": "function"
    },
    {
      "inputs": [
        {
          "internalType": "bytes32",
          "name": "",
          "type": "bytes32"
        }
      ],
      "name": "sigHash",
      "outputs": [
        {
          "internalType": "address",
          "name": "",
          "type": "address"
        }
      ],
      "stateMutability": "view",
      "type": "function"
    },
    {
      "inputs": [],
      "name": "unpause",
      "outputs": [],
      "stateMutability": "nonpayable",
      "type": "function"
    },
    {
      "inputs": [
        {
          "internalType": "uint256",
          "name": "premiumSum",
          "type": "uint256"
        },
        {
          "internalType": "uint8",
          "name": "v",
          "type": "uint8"
        },
        {
          "internalType": "bytes32",
          "name": "r",
          "type": "bytes32"
        },
        {
          "internalType": "bytes32",
          "name": "s",
          "type": "bytes32"
        }
      ],
      "name": "verifyString",
      "outputs": [],
      "stateMutability": "nonpayable",
      "type": "function"
    }
  ],
  "bytecode": "0x608060405260008054731a7c57634db85f84684350c7b74a73169b7c908c6001600160a01b0319918216811790925560018054909116909117905534801561004657600080fd5b5060058054610100600160a81b03191633610100021790556106e58061006d6000396000f3fe608060405234801561001057600080fd5b506004361061009e5760003560e01c806366829b161161006657806366829b161461015a57806370ae92d21461016d5780638456cb591461018d5780638da5cb5b14610195578063add89bb2146101ad57600080fd5b80632d0335ab146100a357806335b665d7146100df5780633f4ba83a146100f45780635ad90c84146100fc5780635c975abb1461013d575b600080fd5b6100cc6100b136600461058e565b6001600160a01b031660009081526002602052604090205490565b6040519081526020015b60405180910390f35b6100f26100ed3660046105be565b6101d0565b005b6100f26104c4565b61012561010a366004610601565b6003602052600090815260409020546001600160a01b031681565b6040516001600160a01b0390911681526020016100d6565b60055461014a9060ff1681565b60405190151581526020016100d6565b6100f261016836600461058e565b6104ff565b6100cc61017b36600461058e565b60026020526000908152604090205481565b6100f2610550565b6005546101259061010090046001600160a01b031681565b61014a6101bb366004610601565b60046020526000908152604090205460ff1681565b60055460ff16156102125760405162461bcd60e51b81526020600482015260076024820152665061757365642160c81b60448201526064015b60405180910390fd5b60408051336020820181905291810186905260009060600160408051601f1981840301815282825280516020918201208383018352601c84527f19457468657265756d205369676e6564204d6573736167653a0a3332000000008483015233600090815260028352838120549351919550926102939285928792910161061a565b60408051601f198184030181529181528151602092830120600081815260039093529120549091506001600160a01b03163314156103095760405162461bcd60e51b81526020600482015260136024820152724861736820616c72656164792065786973747360681b6044820152606401610209565b600081815260036020908152604080832080546001600160a01b03191633179055805183815291820180825284905260ff8a1690820152606081018890526080810187905260019060a0016020604051602081039080840390855afa158015610376573d6000803e3d6000fd5b505050602060405103519050846001600160a01b0316816001600160a01b0316146103d25760405162461bcd60e51b815260206004820152600c60248201526b2bb937b7339039b4b3b732b960a11b6044820152606401610209565b60015460405163a9059cbb60e01b81526001600160a01b038781166004830152602482018c90529091169063a9059cbb90604401600060405180830381600087803b15801561042057600080fd5b505af1158015610434573d6000803e3d6000fd5b505033600090815260026020526040812080549350915061045483610660565b909155505060008281526004602052604090819020805460ff191660011790555182906001600160a01b038716907f5561bfa1c208fd976eaa2851896a22f36b39c7d479424a40e846217ad885753b906104b1908d815260200190565b60405180910390a3505050505050505050565b60055461010090046001600160a01b031633146104f35760405162461bcd60e51b815260040161020990610689565b6005805460ff19169055565b60055461010090046001600160a01b0316331461052e5760405162461bcd60e51b815260040161020990610689565b600080546001600160a01b0319166001600160a01b0392909216919091179055565b60055461010090046001600160a01b0316331461057f5760405162461bcd60e51b815260040161020990610689565b6005805460ff19166001179055565b6000602082840312156105a057600080fd5b81356001600160a01b03811681146105b757600080fd5b9392505050565b600080600080608085870312156105d457600080fd5b84359350602085013560ff811681146105ec57600080fd5b93969395505050506040820135916060013590565b60006020828403121561061357600080fd5b5035919050565b6000845160005b8181101561063b5760208188018101518583015201610621565b8181111561064a576000828501525b5091909101928352506020820152604001919050565b600060001982141561068257634e487b7160e01b600052601160045260246000fd5b5060010190565b6020808252600c908201526b2737ba1030b71037bbb732b960a11b60408201526060019056fea26469706673582212208a3d4adbfb967aac9b1c90ecc9c303fe66e5e3acf0ff77f631b3adc5a3d977c964736f6c63430008090033",
  "linkReferences": {},
  "deployedLinkReferences": {}
}